{
  "_format": "hh-sol-artifact-1",
  "contractName": "WavePortal",
  "sourceName": "contracts/WavePortal.sol",
  "abi": [
    {
      "inputs": [],
      "stateMutability": "nonpayable",
      "type": "constructor"
    },
    {
      "inputs": [],
      "name": "newWave",
      "outputs": [],
      "stateMutability": "nonpayable",
      "type": "function"
    },
    {
      "inputs": [],
      "name": "showTotalWaves",
      "outputs": [
        {
          "internalType": "uint256",
          "name": "",
          "type": "uint256"
        }
      ],
      "stateMutability": "view",
      "type": "function"
    }
  ],
  "bytecode": "0x608060405234801561001057600080fd5b5061003c6040518060800160405280605e8152602001610762605e913961004160201b6100ce1760201c565b6101c4565b6100dd816040516024016100559190610142565b6040516020818303038152906040527f41304fac000000000000000000000000000000000000000000000000000000007bffffffffffffffffffffffffffffffffffffffffffffffffffffffff19166020820180517bffffffffffffffffffffffffffffffffffffffffffffffffffffffff83818316178352505050506100e060201b60201c565b50565b60008151905060006a636f6e736f6c652e6c6f679050602083016000808483855afa5050505050565b600061011482610164565b61011e818561016f565b935061012e818560208601610180565b610137816101b3565b840191505092915050565b6000602082019050818103600083015261015c8184610109565b905092915050565b600081519050919050565b600082825260208201905092915050565b60005b8381101561019e578082015181840152602081019050610183565b838111156101ad576000848401525b50505050565b6000601f19601f8301169050919050565b61058f806101d36000396000f3fe608060405234801561001057600080fd5b50600436106100365760003560e01c806347f3b6221461003b578063ffc1e45414610045575b600080fd5b610043610063565b005b61004d6100a0565b60405161005a91906103a1565b60405180910390f35b600160008082825461007591906103d8565b9250508190555061009e6040518060600160405280603281526020016104de6032913933610167565b565b60006100c66040518060800160405280604a8152602001610510604a9139600054610203565b600054905090565b610164816040516024016100e2919061031f565b6040516020818303038152906040527f41304fac000000000000000000000000000000000000000000000000000000007bffffffffffffffffffffffffffffffffffffffffffffffffffffffff19166020820180517bffffffffffffffffffffffffffffffffffffffffffffffffffffffff838183161783525050505061029f565b50565b6101ff828260405160240161017d929190610341565b6040516020818303038152906040527f319af333000000000000000000000000000000000000000000000000000000007bffffffffffffffffffffffffffffffffffffffffffffffffffffffff19166020820180517bffffffffffffffffffffffffffffffffffffffffffffffffffffffff838183161783525050505061029f565b5050565b61029b8282604051602401610219929190610371565b6040516020818303038152906040527f9710a9d0000000000000000000000000000000000000000000000000000000007bffffffffffffffffffffffffffffffffffffffffffffffffffffffff19166020820180517bffffffffffffffffffffffffffffffffffffffffffffffffffffffff838183161783525050505061029f565b5050565b60008151905060006a636f6e736f6c652e6c6f679050602083016000808483855afa5050505050565b6102d18161042e565b82525050565b60006102e2826103bc565b6102ec81856103c7565b93506102fc81856020860161046a565b610305816104cc565b840191505092915050565b61031981610460565b82525050565b6000602082019050818103600083015261033981846102d7565b905092915050565b6000604082019050818103600083015261035b81856102d7565b905061036a60208301846102c8565b9392505050565b6000604082019050818103600083015261038b81856102d7565b905061039a6020830184610310565b9392505050565b60006020820190506103b66000830184610310565b92915050565b600081519050919050565b600082825260208201905092915050565b60006103e382610460565b91506103ee83610460565b9250827fffffffffffffffffffffffffffffffffffffffffffffffffffffffffffffffff038211156104235761042261049d565b5b828201905092915050565b600061043982610440565b9050919050565b600073ffffffffffffffffffffffffffffffffffffffff82169050919050565b6000819050919050565b60005b8381101561048857808201518184015260208101905061046d565b83811115610497576000848401525b50505050565b7f4e487b7100000000000000000000000000000000000000000000000000000000600052601160045260246000fd5b6000601f19601f830116905091905056fe257320686173206a757374206164646564206d65206173206120667269656e6420616e64207761766564206174206d652e2057652068617665206120746f74616c206e756d626572206f6620256420667269656e647320616e642077617665732048657265277320746f2061206e657720626567696e6e696e672e20a26469706673582212204caaa1a040ec5ac4aa6649e95b727404bfd64c9d05b8f064fc5fe8b405510a6d64736f6c6343000804003348656c6c6f2c204920616d206120576176652041707020746861742068617320636f6d6520746f206c696665207468726f75676820536f6c696469747920616e6420796f7527766520676f74206120667269656e6420696e206d65203a29",
  "linkReferences": {},
  "deployedLinkReferences": {}
}