{
  "_format": "hh-sol-artifact-1",
  "contractName": "WavePortal",
  "sourceName": "contracts/WavePortal.sol",
  "abi": [
    {
      "inputs": [],
      "stateMutability": "payable",
      "type": "constructor"
    },
    {
      "anonymous": false,
      "inputs": [
        {
          "indexed": true,
          "internalType": "address",
          "name": "from",
          "type": "address"
        },
        {
          "indexed": false,
          "internalType": "uint256",
          "name": "timestamp",
          "type": "uint256"
        },
        {
          "indexed": false,
          "internalType": "string",
          "name": "message",
          "type": "string"
        }
      ],
      "name": "showWave",
      "type": "event"
    },
    {
      "inputs": [],
      "name": "getAllWaves",
      "outputs": [
        {
          "components": [
            {
              "internalType": "address",
              "name": "waver",
              "type": "address"
            },
            {
              "internalType": "string",
              "name": "message",
              "type": "string"
            },
            {
              "internalType": "uint256",
              "name": "timestamp",
              "type": "uint256"
            }
          ],
          "internalType": "struct WavePortal.Wave[]",
          "name": "",
          "type": "tuple[]"
        }
      ],
      "stateMutability": "view",
      "type": "function"
    },
    {
      "inputs": [
        {
          "internalType": "address",
          "name": "",
          "type": "address"
        }
      ],
      "name": "lastWavedAt",
      "outputs": [
        {
          "internalType": "uint256",
          "name": "",
          "type": "uint256"
        }
      ],
      "stateMutability": "view",
      "type": "function"
    },
    {
      "inputs": [
        {
          "internalType": "string",
          "name": "_message",
          "type": "string"
        }
      ],
      "name": "newWave",
      "outputs": [],
      "stateMutability": "nonpayable",
      "type": "function"
    },
    {
      "inputs": [],
      "name": "showTotalWaves",
      "outputs": [
        {
          "internalType": "uint256",
          "name": "",
          "type": "uint256"
        }
      ],
      "stateMutability": "view",
      "type": "function"
    }
  ],
  "bytecode": "0x60806040526200004f6040518060400160405280601981526020017f57652068617665206265656e20636f6e737472756374656421000000000000008152506200007760201b6200064e1760201c565b606444426200005f9190620001c4565b6200006b919062000261565b60018190555062000308565b62000117816040516024016200008e919062000184565b6040516020818303038152906040527f41304fac000000000000000000000000000000000000000000000000000000007bffffffffffffffffffffffffffffffffffffffffffffffffffffffff19166020820180517bffffffffffffffffffffffffffffffffffffffffffffffffffffffff83818316178352505050506200011a60201b60201c565b50565b60008151905060006a636f6e736f6c652e6c6f679050602083016000808483855afa5050505050565b60006200015082620001a8565b6200015c8185620001b3565b93506200016e8185602086016200022b565b6200017981620002f7565b840191505092915050565b60006020820190508181036000830152620001a0818462000143565b905092915050565b600081519050919050565b600082825260208201905092915050565b6000620001d18262000221565b9150620001de8362000221565b9250827fffffffffffffffffffffffffffffffffffffffffffffffffffffffffffffffff0382111562000216576200021562000299565b5b828201905092915050565b6000819050919050565b60005b838110156200024b5780820151818401526020810190506200022e565b838111156200025b576000848401525b50505050565b60006200026e8262000221565b91506200027b8362000221565b9250826200028e576200028d620002c8565b5b828206905092915050565b7f4e487b7100000000000000000000000000000000000000000000000000000000600052601160045260246000fd5b7f4e487b7100000000000000000000000000000000000000000000000000000000600052601260045260246000fd5b6000601f19601f8301169050919050565b6112e280620003186000396000f3fe608060405234801561001057600080fd5b506004361061004c5760003560e01c80635626aeb914610051578063a42a46631461006d578063bd43a9081461009d578063ffc1e454146100bb575b600080fd5b61006b60048036038101906100669190610a30565b6100d9565b005b61008760048036038101906100829190610a07565b6104b7565b6040516100949190610de2565b60405180910390f35b6100a56104cf565b6040516100b29190610c99565b60405180910390f35b6100c3610620565b6040516100d09190610de2565b60405180910390f35b42601e600360003373ffffffffffffffffffffffffffffffffffffffff1673ffffffffffffffffffffffffffffffffffffffff168152602001908152602001600020546101269190610ef4565b10610166576040517f08c379a000000000000000000000000000000000000000000000000000000000815260040161015d90610dc2565b60405180910390fd5b42600360003373ffffffffffffffffffffffffffffffffffffffff1673ffffffffffffffffffffffffffffffffffffffff1681526020019081526020016000208190555060016000808282546101bc9190610ef4565b925050819055506101e66040518060600160405280603281526020016112316032913933836106e7565b600260405180606001604052803373ffffffffffffffffffffffffffffffffffffffff16815260200183815260200142815250908060018154018082558091505060019003906000526020600020906003020160009091909190915060008201518160000160006101000a81548173ffffffffffffffffffffffffffffffffffffffff021916908373ffffffffffffffffffffffffffffffffffffffff16021790555060208201518160010190805190602001906102a59291906108e7565b50604082015181600201555050606460015442446102c39190610ef4565b6102cd9190610ef4565b6102d7919061102b565b60018190555061031e6040518060400160405280601681526020017f52616e646f6d20232067656e6572617465643a20256400000000000000000000815250600154610786565b603260015411610464576103676040518060400160405280600781526020017f257320776f6e210000000000000000000000000000000000000000000000000081525033610822565b6000655af3107a40009050478111156103b5576040517f08c379a00000000000000000000000000000000000000000000000000000000081526004016103ac90610d82565b60405180910390fd5b60003373ffffffffffffffffffffffffffffffffffffffff16826040516103db90610c84565b60006040518083038185875af1925050503d8060008114610418576040519150601f19603f3d011682016040523d82523d6000602084013e61041d565b606091505b5050905080610461576040517f08c379a000000000000000000000000000000000000000000000000000000000815260040161045890610da2565b60405180910390fd5b50505b3373ffffffffffffffffffffffffffffffffffffffff167f9d41c437e8e5c4e01f9b645fedd0f61215994d3509f3da9a0492044464ed90e442836040516104ac929190610dfd565b60405180910390a250565b60036020528060005260406000206000915090505481565b60606002805480602002602001604051908101604052809291908181526020016000905b8282101561061757838290600052602060002090600302016040518060600160405290816000820160009054906101000a900473ffffffffffffffffffffffffffffffffffffffff1673ffffffffffffffffffffffffffffffffffffffff1673ffffffffffffffffffffffffffffffffffffffff16815260200160018201805461057c90610fc8565b80601f01602080910402602001604051908101604052809291908181526020018280546105a890610fc8565b80156105f55780601f106105ca576101008083540402835291602001916105f5565b820191906000526020600020905b8154815290600101906020018083116105d857829003601f168201915b50505050508152602001600282015481525050815260200190600101906104f3565b50505050905090565b60006106466040518060800160405280604a8152602001611263604a9139600054610786565b600054905090565b6106e4816040516024016106629190610cbb565b6040516020818303038152906040527f41304fac000000000000000000000000000000000000000000000000000000007bffffffffffffffffffffffffffffffffffffffffffffffffffffffff19166020820180517bffffffffffffffffffffffffffffffffffffffffffffffffffffffff83818316178352505050506108be565b50565b6107818383836040516024016106ff93929190610d0d565b6040516020818303038152906040527fe0e9ad4f000000000000000000000000000000000000000000000000000000007bffffffffffffffffffffffffffffffffffffffffffffffffffffffff19166020820180517bffffffffffffffffffffffffffffffffffffffffffffffffffffffff83818316178352505050506108be565b505050565b61081e828260405160240161079c929190610d52565b6040516020818303038152906040527f9710a9d0000000000000000000000000000000000000000000000000000000007bffffffffffffffffffffffffffffffffffffffffffffffffffffffff19166020820180517bffffffffffffffffffffffffffffffffffffffffffffffffffffffff83818316178352505050506108be565b5050565b6108ba8282604051602401610838929190610cdd565b6040516020818303038152906040527f319af333000000000000000000000000000000000000000000000000000000007bffffffffffffffffffffffffffffffffffffffffffffffffffffffff19166020820180517bffffffffffffffffffffffffffffffffffffffffffffffffffffffff83818316178352505050506108be565b5050565b60008151905060006a636f6e736f6c652e6c6f679050602083016000808483855afa5050505050565b8280546108f390610fc8565b90600052602060002090601f016020900481019282610915576000855561095c565b82601f1061092e57805160ff191683800117855561095c565b8280016001018555821561095c579182015b8281111561095b578251825591602001919060010190610940565b5b509050610969919061096d565b5090565b5b8082111561098657600081600090555060010161096e565b5090565b600061099d61099884610e52565b610e2d565b9050828152602081018484840111156109b557600080fd5b6109c0848285610f86565b509392505050565b6000813590506109d781611219565b92915050565b600082601f8301126109ee57600080fd5b81356109fe84826020860161098a565b91505092915050565b600060208284031215610a1957600080fd5b6000610a27848285016109c8565b91505092915050565b600060208284031215610a4257600080fd5b600082013567ffffffffffffffff811115610a5c57600080fd5b610a68848285016109dd565b91505092915050565b6000610a7d8383610c16565b905092915050565b610a8e81610f4a565b82525050565b610a9d81610f4a565b82525050565b6000610aae82610e93565b610ab88185610eb6565b935083602082028501610aca85610e83565b8060005b85811015610b065784840389528151610ae78582610a71565b9450610af283610ea9565b925060208a01995050600181019050610ace565b50829750879550505050505092915050565b6000610b2382610e9e565b610b2d8185610ed2565b9350610b3d818560208601610f95565b610b4681611118565b840191505092915050565b6000610b5c82610e9e565b610b668185610ee3565b9350610b76818560208601610f95565b610b7f81611118565b840191505092915050565b6000610b97603483610ee3565b9150610ba282611129565b604082019050919050565b6000610bba602783610ee3565b9150610bc582611178565b604082019050919050565b6000610bdd602983610ee3565b9150610be8826111c7565b604082019050919050565b6000610c00600083610ec7565b9150610c0b82611216565b600082019050919050565b6000606083016000830151610c2e6000860182610a85565b5060208301518482036020860152610c468282610b18565b9150506040830151610c5b6040860182610c66565b508091505092915050565b610c6f81610f7c565b82525050565b610c7e81610f7c565b82525050565b6000610c8f82610bf3565b9150819050919050565b60006020820190508181036000830152610cb38184610aa3565b905092915050565b60006020820190508181036000830152610cd58184610b51565b905092915050565b60006040820190508181036000830152610cf78185610b51565b9050610d066020830184610a94565b9392505050565b60006060820190508181036000830152610d278186610b51565b9050610d366020830185610a94565b8181036040830152610d488184610b51565b9050949350505050565b60006040820190508181036000830152610d6c8185610b51565b9050610d7b6020830184610c75565b9392505050565b60006020820190508181036000830152610d9b81610b8a565b9050919050565b60006020820190508181036000830152610dbb81610bad565b9050919050565b60006020820190508181036000830152610ddb81610bd0565b9050919050565b6000602082019050610df76000830184610c75565b92915050565b6000604082019050610e126000830185610c75565b8181036020830152610e248184610b51565b90509392505050565b6000610e37610e48565b9050610e438282610ffa565b919050565b6000604051905090565b600067ffffffffffffffff821115610e6d57610e6c6110e9565b5b610e7682611118565b9050602081019050919050565b6000819050602082019050919050565b600081519050919050565b600081519050919050565b6000602082019050919050565b600082825260208201905092915050565b600081905092915050565b600082825260208201905092915050565b600082825260208201905092915050565b6000610eff82610f7c565b9150610f0a83610f7c565b9250827fffffffffffffffffffffffffffffffffffffffffffffffffffffffffffffffff03821115610f3f57610f3e61105c565b5b828201905092915050565b6000610f5582610f5c565b9050919050565b600073ffffffffffffffffffffffffffffffffffffffff82169050919050565b6000819050919050565b82818337600083830152505050565b60005b83811015610fb3578082015181840152602081019050610f98565b83811115610fc2576000848401525b50505050565b60006002820490506001821680610fe057607f821691505b60208210811415610ff457610ff36110ba565b5b50919050565b61100382611118565b810181811067ffffffffffffffff82111715611022576110216110e9565b5b80604052505050565b600061103682610f7c565b915061104183610f7c565b9250826110515761105061108b565b5b828206905092915050565b7f4e487b7100000000000000000000000000000000000000000000000000000000600052601160045260246000fd5b7f4e487b7100000000000000000000000000000000000000000000000000000000600052601260045260246000fd5b7f4e487b7100000000000000000000000000000000000000000000000000000000600052602260045260246000fd5b7f4e487b7100000000000000000000000000000000000000000000000000000000600052604160045260246000fd5b6000601f19601f8301169050919050565b7f547279696e6720746f207769746864726177206d6f7265206d6f6e657920746860008201527f616e2074686520636f6e7472616374206861732e000000000000000000000000602082015250565b7f4661696c656420746f207769746864726177206d6f6e65792066726f6d20636f60008201527f6e74726163742e00000000000000000000000000000000000000000000000000602082015250565b7f4d7573742077616974203330207365636f6e6473206265666f7265207761766960008201527f6e6720616761696e2e0000000000000000000000000000000000000000000000602082015250565b50565b61122281610f4a565b811461122d57600080fd5b5056fe257320686173206a757374206164646564206d65206173206120667269656e6420616e64207761766564206174206d652e2057652068617665206120746f74616c206e756d626572206f6620256420667269656e647320616e642077617665732048657265277320746f2061206e657720626567696e6e696e672e20a26469706673582212207de8335cfaf9a41b3e8bf3ad7408cf3a7cf90fbdf376fd66fecddc4e96fe25ff64736f6c63430008040033",
  "linkReferences": {},
  "deployedLinkReferences": {}
}